{
  "transactions": [
    {
      "hash": "0x1336ec4e01d420aed878da0ac0efdfe1a84e61a739c82aeeb33fc4890989fe2b",
      "transactionType": "CREATE",
      "contractName": "DeShop",
      "contractAddress": "0xDd4E20B89ffc2241333F81b8fc08BD525E0B07ed",
      "function": null,
      "arguments": null,
      "transaction": {
        "type": "0x02",
        "from": "0x40e90b6f11888d2340b95f4a10d166fb15eae711",
        "gas": "0x237623",
        "value": "0x0",
        "data": "0x608060405234801561001057600080fd5b5060006006819055600755611f4c8061002a6000396000f3fe6080604052600436106100a75760003560e01c80636bfb0d01116100645780636bfb0d011461018e57806383403120146101a4578063a1b141d4146101d1578063bfe81b8a146101e7578063e7fb74c714610207578063f06141cb1461021c57600080fd5b80631b20335d146100ac5780631d1f35b9146100df5780633129e773146100ff57806334eeccf61461012c5780634ba1d6aa1461015957806353c5d0811461016e575b600080fd5b3480156100b857600080fd5b506100cc6100c73660046119a5565b61023c565b6040519081526020015b60405180910390f35b3480156100eb57600080fd5b506100cc6100fa366004611a09565b61036c565b34801561010b57600080fd5b5061011f61011a366004611aa3565b6105b8565b6040516100d69190611baa565b34801561013857600080fd5b5061014c610147366004611bbd565b61083d565b6040516100d69190611be6565b34801561016557600080fd5b5061014c610b9d565b34801561017a57600080fd5b5061014c610189366004611aa3565b610ec4565b34801561019a57600080fd5b506100cc60075481565b3480156101b057600080fd5b506101c46101bf366004611aa3565b611236565b6040516100d69190611c48565b3480156101dd57600080fd5b506100cc60065481565b3480156101f357600080fd5b5061014c610202366004611bbd565b6113f8565b61021a610215366004611aa3565b611424565b005b34801561022857600080fd5b506101c4610237366004611bbd565b611622565b336000908152600260205260408120541561029e5760405162461bcd60e51b815260206004820152601860248201527f596f7520616c7265616479206861766520612073746f7265000000000000000060448201526064015b60405180910390fd5b60006006600081546102af90611cb8565b9182905550604080516060810182528681526020808201879052600082840181905284815290819052919091208151929350909181906102ef9082611d54565b50602082015160018201906103049082611d54565b5060409182015160029182015533600081815260209290925290829020839055905191925082917fc743f35e27b43c7f3c74a9d0c8c8b236ad11df8cd8b7eda759dd838b4fc2e54b9161035d9184919088908890611e14565b60405180910390a15092915050565b60008561037933826117d7565b6103da5760405162461bcd60e51b815260206004820152602c60248201527f4f6e6c79207468652073746f7265206f776e65722063616e20706572666f726d60448201526b103a3434b99030b1ba34b7b760a11b6064820152608401610295565b866103e4816117f9565b6104005760405162461bcd60e51b815260040161029590611e5b565b600060076000815461041190611cb8565b91905081905590506040518060e0016040528060006001600160a01b03168152602001336001600160a01b03168152602001868152602001600015158152602001898152602001888152602001878152506001600083815260200190815260200160002060008201518160000160006101000a8154816001600160a01b0302191690836001600160a01b0316021790555060208201518160010160006101000a8154816001600160a01b0302191690836001600160a01b031602179055506040820151816002015560608201518160030160006101000a81548160ff021916908315150217905550608082015181600401908161050e9190611d54565b5060a082015160058201906105239082611d54565b5060c082015160068201906105389082611d54565b5050506000898152600460205260409020610553908261180e565b50600081815260036020526040908190208a90555190935083907f1a980ed1288dfc7afe7c3dc778545d2e2d05ebb59599a644cf2a271e9d2a9b0f906105a490839033908c908c908c908c90611e89565b60405180910390a150505095945050505050565b6105c06118a9565b6000828152600160208181526040808420815160e08101835281546001600160a01b0390811682529482015490941692840192909252600282015490830152600381015460ff161515606083015260048101805460808401919061062390611cd1565b80601f016020809104026020016040519081016040528092919081815260200182805461064f90611cd1565b801561069c5780601f106106715761010080835404028352916020019161069c565b820191906000526020600020905b81548152906001019060200180831161067f57829003601f168201915b505050505081526020016005820180546106b590611cd1565b80601f01602080910402602001604051908101604052809291908181526020018280546106e190611cd1565b801561072e5780601f106107035761010080835404028352916020019161072e565b820191906000526020600020905b81548152906001019060200180831161071157829003601f168201915b5050505050815260200160068201805461074790611cd1565b80601f016020809104026020016040519081016040528092919081815260200182805461077390611cd1565b80156107c05780601f10610795576101008083540402835291602001916107c0565b820191906000526020600020905b8154815290600101906020018083116107a357829003601f168201915b505050505081525050905060405180610100016040528084815260200182600001516001600160a01b0316815260200182602001516001600160a01b0316815260200182604001518152602001826060015115158152602001826080015181526020018260a0015181526020018260c00151815250915050919050565b6001600160a01b0381166000908152600560205260408120606091906108629061181a565b90508067ffffffffffffffff81111561087d5761087d611902565b6040519080825280602002602001820160405280156108b657816020015b6108a36118a9565b81526020019060019003908161089b5790505b50915060005b81811015610b96576001600160a01b03841660009081526005602052604081206108e69083611824565b6000818152600160208181526040808420815160e08101835281546001600160a01b0390811682529482015490941692840192909252600282015490830152600381015460ff161515606083015260048101805494955092939192909160808401919061095290611cd1565b80601f016020809104026020016040519081016040528092919081815260200182805461097e90611cd1565b80156109cb5780601f106109a0576101008083540402835291602001916109cb565b820191906000526020600020905b8154815290600101906020018083116109ae57829003601f168201915b505050505081526020016005820180546109e490611cd1565b80601f0160208091040260200160405190810160405280929190818152602001828054610a1090611cd1565b8015610a5d5780601f10610a3257610100808354040283529160200191610a5d565b820191906000526020600020905b815481529060010190602001808311610a4057829003601f168201915b50505050508152602001600682018054610a7690611cd1565b80601f0160208091040260200160405190810160405280929190818152602001828054610aa290611cd1565b8015610aef5780601f10610ac457610100808354040283529160200191610aef565b820191906000526020600020905b815481529060010190602001808311610ad257829003601f168201915b505050505081525050905060405180610100016040528083815260200182600001516001600160a01b0316815260200182602001516001600160a01b0316815260200182604001518152602001826060015115158152602001826080015181526020018260a0015181526020018260c00151815250858481518110610b7657610b76611eed565b602002602001018190525050508080610b8e90611cb8565b9150506108bc565b5050919050565b606060075467ffffffffffffffff811115610bba57610bba611902565b604051908082528060200260200182016040528015610bf357816020015b610be06118a9565b815260200190600190039081610bd85790505b50905060005b600754811015610ec0576000610c10826001611f03565b6000818152600160208181526040808420815160e08101835281546001600160a01b0390811682529482015490941692840192909252600282015490830152600381015460ff1615156060830152600481018054949550929391929091608084019190610c7c90611cd1565b80601f0160208091040260200160405190810160405280929190818152602001828054610ca890611cd1565b8015610cf55780601f10610cca57610100808354040283529160200191610cf5565b820191906000526020600020905b815481529060010190602001808311610cd857829003601f168201915b50505050508152602001600582018054610d0e90611cd1565b80601f0160208091040260200160405190810160405280929190818152602001828054610d3a90611cd1565b8015610d875780601f10610d5c57610100808354040283529160200191610d87565b820191906000526020600020905b815481529060010190602001808311610d6a57829003601f168201915b50505050508152602001600682018054610da090611cd1565b80601f0160208091040260200160405190810160405280929190818152602001828054610dcc90611cd1565b8015610e195780601f10610dee57610100808354040283529160200191610e19565b820191906000526020600020905b815481529060010190602001808311610dfc57829003601f168201915b505050505081525050905060405180610100016040528083815260200182600001516001600160a01b0316815260200182602001516001600160a01b0316815260200182604001518152602001826060015115158152602001826080015181526020018260a0015181526020018260c00151815250848481518110610ea057610ea0611eed565b602002602001018190525050508080610eb890611cb8565b915050610bf9565b5090565b606081610ed0816117f9565b610eec5760405162461bcd60e51b815260040161029590611e5b565b6000838152600460205260408120610f039061181a565b90508067ffffffffffffffff811115610f1e57610f1e611902565b604051908082528060200260200182016040528015610f5757816020015b610f446118a9565b815260200190600190039081610f3c5790505b50925060005b8181101561122d576000858152600460205260408120610f7d9083611824565b6000818152600160208181526040808420815160e08101835281546001600160a01b0390811682529482015490941692840192909252600282015490830152600381015460ff1615156060830152600481018054949550929391929091608084019190610fe990611cd1565b80601f016020809104026020016040519081016040528092919081815260200182805461101590611cd1565b80156110625780601f1061103757610100808354040283529160200191611062565b820191906000526020600020905b81548152906001019060200180831161104557829003601f168201915b5050505050815260200160058201805461107b90611cd1565b80601f01602080910402602001604051908101604052809291908181526020018280546110a790611cd1565b80156110f45780601f106110c9576101008083540402835291602001916110f4565b820191906000526020600020905b8154815290600101906020018083116110d757829003601f168201915b5050505050815260200160068201805461110d90611cd1565b80601f016020809104026020016040519081016040528092919081815260200182805461113990611cd1565b80156111865780601f1061115b57610100808354040283529160200191611186565b820191906000526020600020905b81548152906001019060200180831161116957829003601f168201915b505050505081525050905060405180610100016040528083815260200182600001516001600160a01b0316815260200182602001516001600160a01b0316815260200182604001518152602001826060015115158152602001826080015181526020018260a0015181526020018260c0015181525086848151811061120d5761120d611eed565b60200260200101819052505050808061122590611cb8565b915050610f5d565b50505b50919050565b6112616040518060800160405280600081526020016060815260200160608152602001600081525090565b8161126b816117f9565b6112875760405162461bcd60e51b815260040161029590611e5b565b6000838152602081905260408082208151606081019092528054829082906112ae90611cd1565b80601f01602080910402602001604051908101604052809291908181526020018280546112da90611cd1565b80156113275780601f106112fc57610100808354040283529160200191611327565b820191906000526020600020905b81548152906001019060200180831161130a57829003601f168201915b5050505050815260200160018201805461134090611cd1565b80601f016020809104026020016040519081016040528092919081815260200182805461136c90611cd1565b80156113b95780601f1061138e576101008083540402835291602001916113b9565b820191906000526020600020905b81548152906001019060200180831161139c57829003601f168201915b50505091835250506002919091015460209182015260408051608081018252968752825187830152908201518682015201516060850152509192915050565b6001600160a01b03811660009081526002602052604090205460609061141d81610ec4565b9392505050565b6000818152600160205260409020600381015460ff161561147e5760405162461bcd60e51b8152602060048201526014602482015273125d195b481a5cc8185b1c9958591e481cdbdb1960621b6044820152606401610295565b80600201543410156114ca5760405162461bcd60e51b8152602060048201526015602482015274139bdd08195b9bdd59da08199d5b991cc81cd95b9d605a1b6044820152606401610295565b60018101546001600160a01b031633036115265760405162461bcd60e51b815260206004820152601860248201527f43616e6e6f742062757920796f7572206f776e206974656d00000000000000006044820152606401610295565b80546001600160a01b03191633908117825560038201805460ff19166001179055600090815260056020526040902061155f908361180e565b5060008281526003602090815260408083205460028086015482865293859052918420909101805491939091611596908490611f03565b909155505060405133903480156108fc02916000818181858888f193505050501580156115c7573d6000803e3d6000fd5b5081546002830154604080518681523360208201526001600160a01b039093169083015260608201527f04ddd54c6b746e69ba87f862311f7670bd1d7276846778ac81cd38747b27a7469060800160405180910390a1505050565b61164d6040518060800160405280600081526020016060815260200160608152602001600081525090565b6001600160a01b0382166000908152600260209081526040808320548084529183905280832081516060810190925280549293928290829061168e90611cd1565b80601f01602080910402602001604051908101604052809291908181526020018280546116ba90611cd1565b80156117075780601f106116dc57610100808354040283529160200191611707565b820191906000526020600020905b8154815290600101906020018083116116ea57829003601f168201915b5050505050815260200160018201805461172090611cd1565b80601f016020809104026020016040519081016040528092919081815260200182805461174c90611cd1565b80156117995780601f1061176e57610100808354040283529160200191611799565b820191906000526020600020905b81548152906001019060200180831161177c57829003601f168201915b505050918352505060029190910154602091820152604080516080810182529485528251858301529082015184820152015160608301525092915050565b6001600160a01b03821660009081526002602052604090205481145b92915050565b600080821180156117f3575050600654101590565b600061141d8383611830565b60006117f3825490565b600061141d838361187f565b6000818152600183016020526040812054611877575081546001818101845560008481526020808220909301849055845484825282860190935260409020919091556117f3565b5060006117f3565b600082600001828154811061189657611896611eed565b9060005260206000200154905092915050565b6040518061010001604052806000815260200160006001600160a01b0316815260200160006001600160a01b03168152602001600081526020016000151581526020016060815260200160608152602001606081525090565b634e487b7160e01b600052604160045260246000fd5b600082601f83011261192957600080fd5b813567ffffffffffffffff8082111561194457611944611902565b604051601f8301601f19908116603f0116810190828211818310171561196c5761196c611902565b8160405283815286602085880101111561198557600080fd5b836020870160208301376000602085830101528094505050505092915050565b600080604083850312156119b857600080fd5b823567ffffffffffffffff808211156119d057600080fd5b6119dc86838701611918565b935060208501359150808211156119f257600080fd5b506119ff85828601611918565b9150509250929050565b600080600080600060a08688031215611a2157600080fd5b85359450602086013567ffffffffffffffff80821115611a4057600080fd5b611a4c89838a01611918565b95506040880135915080821115611a6257600080fd5b611a6e89838a01611918565b94506060880135915080821115611a8457600080fd5b50611a9188828901611918565b95989497509295608001359392505050565b600060208284031215611ab557600080fd5b5035919050565b6000815180845260005b81811015611ae257602081850181015186830182015201611ac6565b506000602082860101526020601f19601f83011685010191505092915050565b60006101008251845260018060a01b0360208401511660208501526040830151611b3760408601826001600160a01b03169052565b50606083015160608501526080830151611b55608086018215159052565b5060a08301518160a0860152611b6d82860182611abc565b91505060c083015184820360c0860152611b878282611abc565b91505060e083015184820360e0860152611ba18282611abc565b95945050505050565b60208152600061141d6020830184611b02565b600060208284031215611bcf57600080fd5b81356001600160a01b038116811461141d57600080fd5b6000602080830181845280855180835260408601915060408160051b870101925083870160005b82811015611c3b57603f19888603018452611c29858351611b02565b94509285019290850190600101611c0d565b5092979650505050505050565b60208152815160208201526000602083015160806040840152611c6e60a0840182611abc565b90506040840151601f19848303016060850152611c8b8282611abc565b915050606084015160808401528091505092915050565b634e487b7160e01b600052601160045260246000fd5b600060018201611cca57611cca611ca2565b5060010190565b600181811c90821680611ce557607f821691505b60208210810361123057634e487b7160e01b600052602260045260246000fd5b601f821115611d4f57600081815260208120601f850160051c81016020861015611d2c5750805b601f850160051c820191505b81811015611d4b57828155600101611d38565b5050505b505050565b815167ffffffffffffffff811115611d6e57611d6e611902565b611d8281611d7c8454611cd1565b84611d05565b602080601f831160018114611db75760008415611d9f5750858301515b600019600386901b1c1916600185901b178555611d4b565b600085815260208120601f198616915b82811015611de657888601518255948401946001909101908401611dc7565b5085821015611e045787850151600019600388901b60f8161c191681555b5050505050600190811b01905550565b8481526001600160a01b0384166020820152608060408201819052600090611e3e90830185611abc565b8281036060840152611e508185611abc565b979650505050505050565b60208082526014908201527314dd1bdc9948191bd95cc81b9bdd08195e1a5cdd60621b604082015260600190565b8681526001600160a01b038616602082015260c060408201819052600090611eb390830187611abc565b8281036060840152611ec58187611abc565b90508281036080840152611ed98186611abc565b9150508260a0830152979650505050505050565b634e487b7160e01b600052603260045260246000fd5b808201808211156117f3576117f3611ca256fea2646970667358221220fccb75daac7eb6dab11521a7c34d2fd4debf1686e6c511dd0469f295311e778564736f6c63430008140033",
        "nonce": "0xd",
        "accessList": []
      },
      "additionalContracts": [],
      "isFixedGasLimit": false
    },
    {
      "hash": "0xa8beacd1e024a690f5f2c7271c1655c90b932f1f45e852980151727d21ad9ebe",
      "transactionType": "CALL",
      "contractName": "DeShop",
      "contractAddress": "0xDd4E20B89ffc2241333F81b8fc08BD525E0B07ed",
      "function": "createStore(string,string):(uint256)",
      "arguments": [
        "My Store",
        "The most amazing store ever"
      ],
      "transaction": {
        "type": "0x02",
        "from": "0x40e90b6f11888d2340b95f4a10d166fb15eae711",
        "to": "0xdd4e20b89ffc2241333f81b8fc08bd525e0b07ed",
        "gas": "0x28054",
        "value": "0x0",
        "data": "0x1b20335d0000000000000000000000000000000000000000000000000000000000000040000000000000000000000000000000000000000000000000000000000000008000000000000000000000000000000000000000000000000000000000000000084d792053746f7265000000000000000000000000000000000000000000000000000000000000000000000000000000000000000000000000000000000000001b546865206d6f737420616d617a696e672073746f726520657665720000000000",
        "nonce": "0xe",
        "accessList": []
      },
      "additionalContracts": [],
      "isFixedGasLimit": false
    },
    {
      "hash": "0x600573b624b123879db31e93badfe17b117d25e7fa976ed916cc56994cbd9a2d",
      "transactionType": "CALL",
      "contractName": "DeShop",
      "contractAddress": "0xDd4E20B89ffc2241333F81b8fc08BD525E0B07ed",
      "function": "createItem(uint256,string,string,string,uint256):(uint256)",
      "arguments": [
        "1",
        "Item 1",
        "The best item ever",
        "https://picsum.photos/200/300",
        "100000000000000000"
      ],
      "transaction": {
        "type": "0x02",
        "from": "0x40e90b6f11888d2340b95f4a10d166fb15eae711",
        "to": "0xdd4e20b89ffc2241333f81b8fc08bd525e0b07ed",
        "gas": "0x58551",
        "value": "0x0",
        "data": "0x1d1f35b9000000000000000000000000000000000000000000000000000000000000000100000000000000000000000000000000000000000000000000000000000000a000000000000000000000000000000000000000000000000000000000000000e00000000000000000000000000000000000000000000000000000000000000120000000000000000000000000000000000000000000000000016345785d8a000000000000000000000000000000000000000000000000000000000000000000064974656d2031000000000000000000000000000000000000000000000000000000000000000000000000000000000000000000000000000000000000000000125468652062657374206974656d20657665720000000000000000000000000000000000000000000000000000000000000000000000000000000000000000001d68747470733a2f2f70696373756d2e70686f746f732f3230302f333030000000",
        "nonce": "0xf",
        "accessList": []
      },
      "additionalContracts": [],
      "isFixedGasLimit": false
    },
    {
      "hash": "0xe08f1c24aff561ad46451601e11d2cab52d2f9fc13a8b1947bff04bdd398f26e",
      "transactionType": "CALL",
      "contractName": "DeShop",
      "contractAddress": "0xDd4E20B89ffc2241333F81b8fc08BD525E0B07ed",
      "function": "createItem(uint256,string,string,string,uint256):(uint256)",
      "arguments": [
        "1",
        "Item 2",
        "The best item ever existed",
        "https://picsum.photos/200/300",
        "100000000000000000"
      ],
      "transaction": {
        "type": "0x02",
        "from": "0x40e90b6f11888d2340b95f4a10d166fb15eae711",
        "to": "0xdd4e20b89ffc2241333f81b8fc08bd525e0b07ed",
        "gas": "0x4cd50",
        "value": "0x0",
        "data": "0x1d1f35b9000000000000000000000000000000000000000000000000000000000000000100000000000000000000000000000000000000000000000000000000000000a000000000000000000000000000000000000000000000000000000000000000e00000000000000000000000000000000000000000000000000000000000000120000000000000000000000000000000000000000000000000016345785d8a000000000000000000000000000000000000000000000000000000000000000000064974656d20320000000000000000000000000000000000000000000000000000000000000000000000000000000000000000000000000000000000000000001a5468652062657374206974656d20657665722065786973746564000000000000000000000000000000000000000000000000000000000000000000000000001d68747470733a2f2f70696373756d2e70686f746f732f3230302f333030000000",
        "nonce": "0x10",
        "accessList": []
      },
      "additionalContracts": [],
      "isFixedGasLimit": false
    },
    {
      "hash": "0x64ba8aa8ad86a2c1405276036507400911ca28b1100c264eba4c7918a20a9d94",
      "transactionType": "CALL",
      "contractName": "DeShop",
      "contractAddress": "0xDd4E20B89ffc2241333F81b8fc08BD525E0B07ed",
      "function": "createItem(uint256,string,string,string,uint256):(uint256)",
      "arguments": [
        "1",
        "Item 3",
        "The only and best item",
        "https://picsum.photos/200/300",
        "100000000000000000"
      ],
      "transaction": {
        "type": "0x02",
        "from": "0x40e90b6f11888d2340b95f4a10d166fb15eae711",
        "to": "0xdd4e20b89ffc2241333f81b8fc08bd525e0b07ed",
        "gas": "0x4cd0d",
        "value": "0x0",
        "data": "0x1d1f35b9000000000000000000000000000000000000000000000000000000000000000100000000000000000000000000000000000000000000000000000000000000a000000000000000000000000000000000000000000000000000000000000000e00000000000000000000000000000000000000000000000000000000000000120000000000000000000000000000000000000000000000000016345785d8a000000000000000000000000000000000000000000000000000000000000000000064974656d203300000000000000000000000000000000000000000000000000000000000000000000000000000000000000000000000000000000000000000016546865206f6e6c7920616e642062657374206974656d00000000000000000000000000000000000000000000000000000000000000000000000000000000001d68747470733a2f2f70696373756d2e70686f746f732f3230302f333030000000",
        "nonce": "0x11",
        "accessList": []
      },
      "additionalContracts": [],
      "isFixedGasLimit": false
    },
    {
      "hash": "0x18c97b00632b41e69911533dc08b43b67c981a13b7db50ec8618299b4e52c7f5",
      "transactionType": "CALL",
      "contractName": "DeShop",
      "contractAddress": "0xDd4E20B89ffc2241333F81b8fc08BD525E0B07ed",
      "function": "createItem(uint256,string,string,string,uint256):(uint256)",
      "arguments": [
        "1",
        "Item 4",
        "The item for everyone",
        "https://picsum.photos/200/300",
        "100000000000000000"
      ],
      "transaction": {
        "type": "0x02",
        "from": "0x40e90b6f11888d2340b95f4a10d166fb15eae711",
        "to": "0xdd4e20b89ffc2241333f81b8fc08bd525e0b07ed",
        "gas": "0x4ccfc",
        "value": "0x0",
        "data": "0x1d1f35b9000000000000000000000000000000000000000000000000000000000000000100000000000000000000000000000000000000000000000000000000000000a000000000000000000000000000000000000000000000000000000000000000e00000000000000000000000000000000000000000000000000000000000000120000000000000000000000000000000000000000000000000016345785d8a000000000000000000000000000000000000000000000000000000000000000000064974656d203400000000000000000000000000000000000000000000000000000000000000000000000000000000000000000000000000000000000000000015546865206974656d20666f722065766572796f6e650000000000000000000000000000000000000000000000000000000000000000000000000000000000001d68747470733a2f2f70696373756d2e70686f746f732f3230302f333030000000",
        "nonce": "0x12",
        "accessList": []
      },
      "additionalContracts": [],
      "isFixedGasLimit": false
    }
  ],
  "receipts": [
    {
      "transactionHash": "0x1336ec4e01d420aed878da0ac0efdfe1a84e61a739c82aeeb33fc4890989fe2b",
      "transactionIndex": "0x1",
      "blockHash": "0xd1c428c9ca9582d20e9a229e86b3fa4425ba76c3300734daae88d6afc8f0e458",
      "blockNumber": "0xa24489",
      "from": "0x40E90B6f11888D2340B95f4a10d166fB15eaE711",
      "to": null,
      "cumulativeGasUsed": "0x1bfe34",
      "gasUsed": "0x1b472f",
      "contractAddress": "0xDd4E20B89ffc2241333F81b8fc08BD525E0B07ed",
      "logs": [],
      "status": "0x1",
      "logsBloom": "0x00000000000000000000000000000000000000000000000000000000000000000000000000000000000000000000000000000000000000000000000000000000000000000000000000000000000000000000000000000000000000000000000000000000000000000000000000000000000000000000000000000000000000000000000000000000000000000000000000000000000000000000000000000000000000000000000000000000000000000000000000000000000000000000000000000000000000000000000000000000000000000000000000000000000000000000000000000000000000000000000000000000000000000000000000000000",
      "type": "0x2",
      "effectiveGasPrice": "0xb2d05e32"
    },
    {
      "transactionHash": "0xa8beacd1e024a690f5f2c7271c1655c90b932f1f45e852980151727d21ad9ebe",
      "transactionIndex": "0x2",
      "blockHash": "0xd1c428c9ca9582d20e9a229e86b3fa4425ba76c3300734daae88d6afc8f0e458",
      "blockNumber": "0xa24489",
      "from": "0x40E90B6f11888D2340B95f4a10d166fB15eaE711",
      "to": "0xDd4E20B89ffc2241333F81b8fc08BD525E0B07ed",
      "cumulativeGasUsed": "0x1dcdcb",
      "gasUsed": "0x1cf97",
      "contractAddress": null,
      "logs": [
        {
          "address": "0xDd4E20B89ffc2241333F81b8fc08BD525E0B07ed",
          "topics": [
            "0xc743f35e27b43c7f3c74a9d0c8c8b236ad11df8cd8b7eda759dd838b4fc2e54b"
          ],
          "data": "0x000000000000000000000000000000000000000000000000000000000000000100000000000000000000000040e90b6f11888d2340b95f4a10d166fb15eae711000000000000000000000000000000000000000000000000000000000000008000000000000000000000000000000000000000000000000000000000000000c000000000000000000000000000000000000000000000000000000000000000084d792053746f7265000000000000000000000000000000000000000000000000000000000000000000000000000000000000000000000000000000000000001b546865206d6f737420616d617a696e672073746f726520657665720000000000",
          "blockHash": "0xd1c428c9ca9582d20e9a229e86b3fa4425ba76c3300734daae88d6afc8f0e458",
          "blockNumber": "0xa24489",
          "transactionHash": "0xa8beacd1e024a690f5f2c7271c1655c90b932f1f45e852980151727d21ad9ebe",
          "transactionIndex": "0x2",
          "logIndex": "0x0",
          "removed": false
        }
      ],
      "status": "0x1",
      "logsBloom": "0x00000000000000000000000000000000000000000000000000000000000000000000000000000000000000040000000200000000000000000000000000000000000000000000000000000000000000000000000000000000000000000000000000000000000000000000000000000000000000000000000000000000000000000000000000000000080000000000000000000000000000000000000000000000000000000000000000000000000000100000000000000000000000000040000000000000000000000000000000000000000000000000000000000000000000000000000000000000000000000000000000000000000000000400000000000000",
      "type": "0x2",
      "effectiveGasPrice": "0xb2d05e32"
    },
    {
      "transactionHash": "0x600573b624b123879db31e93badfe17b117d25e7fa976ed916cc56994cbd9a2d",
      "transactionIndex": "0x3",
      "blockHash": "0xd1c428c9ca9582d20e9a229e86b3fa4425ba76c3300734daae88d6afc8f0e458",
      "blockNumber": "0xa24489",
      "from": "0x40E90B6f11888D2340B95f4a10d166fB15eaE711",
      "to": "0xDd4E20B89ffc2241333F81b8fc08BD525E0B07ed",
      "cumulativeGasUsed": "0x21cd03",
      "gasUsed": "0x3ff38",
      "contractAddress": null,
      "logs": [
        {
          "address": "0xDd4E20B89ffc2241333F81b8fc08BD525E0B07ed",
          "topics": [
            "0x1a980ed1288dfc7afe7c3dc778545d2e2d05ebb59599a644cf2a271e9d2a9b0f"
          ],
          "data": "0x000000000000000000000000000000000000000000000000000000000000000100000000000000000000000040e90b6f11888d2340b95f4a10d166fb15eae71100000000000000000000000000000000000000000000000000000000000000c000000000000000000000000000000000000000000000000000000000000001000000000000000000000000000000000000000000000000000000000000000140000000000000000000000000000000000000000000000000016345785d8a000000000000000000000000000000000000000000000000000000000000000000064974656d2031000000000000000000000000000000000000000000000000000000000000000000000000000000000000000000000000000000000000000000125468652062657374206974656d20657665720000000000000000000000000000000000000000000000000000000000000000000000000000000000000000001d68747470733a2f2f70696373756d2e70686f746f732f3230302f333030000000",
          "blockHash": "0xd1c428c9ca9582d20e9a229e86b3fa4425ba76c3300734daae88d6afc8f0e458",
          "blockNumber": "0xa24489",
          "transactionHash": "0x600573b624b123879db31e93badfe17b117d25e7fa976ed916cc56994cbd9a2d",
          "transactionIndex": "0x3",
          "logIndex": "0x1",
          "removed": false
        }
      ],
      "status": "0x1",
      "logsBloom": "0x00000000000000000000000000000000000000000000000000000000000000000000000000000000000000000000000200000000000000000000000000000000000000000000000000000000000000000000020000000004000000000000000000000000000000000000000000000200000000000000000000000000000000000000000000000000080000000000000000000000000000000000000000000000000000000000000000000000000000100000000000000000000000000000000000000000000000000000000000000000000000000000000000000000000000000000000000000000000000000000000000000000000000000000000000000000",
      "type": "0x2",
      "effectiveGasPrice": "0xb2d05e32"
    },
    {
      "transactionHash": "0xe08f1c24aff561ad46451601e11d2cab52d2f9fc13a8b1947bff04bdd398f26e",
      "transactionIndex": "0x4",
      "blockHash": "0xd1c428c9ca9582d20e9a229e86b3fa4425ba76c3300734daae88d6afc8f0e458",
      "blockNumber": "0xa24489",
      "from": "0x40E90B6f11888D2340B95f4a10d166fB15eaE711",
      "to": "0xDd4E20B89ffc2241333F81b8fc08BD525E0B07ed",
      "cumulativeGasUsed": "0x254703",
      "gasUsed": "0x37a00",
      "contractAddress": null,
      "logs": [
        {
          "address": "0xDd4E20B89ffc2241333F81b8fc08BD525E0B07ed",
          "topics": [
            "0x1a980ed1288dfc7afe7c3dc778545d2e2d05ebb59599a644cf2a271e9d2a9b0f"
          ],
          "data": "0x000000000000000000000000000000000000000000000000000000000000000200000000000000000000000040e90b6f11888d2340b95f4a10d166fb15eae71100000000000000000000000000000000000000000000000000000000000000c000000000000000000000000000000000000000000000000000000000000001000000000000000000000000000000000000000000000000000000000000000140000000000000000000000000000000000000000000000000016345785d8a000000000000000000000000000000000000000000000000000000000000000000064974656d20320000000000000000000000000000000000000000000000000000000000000000000000000000000000000000000000000000000000000000001a5468652062657374206974656d20657665722065786973746564000000000000000000000000000000000000000000000000000000000000000000000000001d68747470733a2f2f70696373756d2e70686f746f732f3230302f333030000000",
          "blockHash": "0xd1c428c9ca9582d20e9a229e86b3fa4425ba76c3300734daae88d6afc8f0e458",
          "blockNumber": "0xa24489",
          "transactionHash": "0xe08f1c24aff561ad46451601e11d2cab52d2f9fc13a8b1947bff04bdd398f26e",
          "transactionIndex": "0x4",
          "logIndex": "0x2",
          "removed": false
        }
      ],
      "status": "0x1",
      "logsBloom": "0x00000000000000000000000000000000000000000000000000000000000000000000000000000000000000000000000200000000000000000000000000000000000000000000000000000000000000000000020000000004000000000000000000000000000000000000000000000200000000000000000000000000000000000000000000000000080000000000000000000000000000000000000000000000000000000000000000000000000000100000000000000000000000000000000000000000000000000000000000000000000000000000000000000000000000000000000000000000000000000000000000000000000000000000000000000000",
      "type": "0x2",
      "effectiveGasPrice": "0xb2d05e32"
    },
    {
      "transactionHash": "0x64ba8aa8ad86a2c1405276036507400911ca28b1100c264eba4c7918a20a9d94",
      "transactionIndex": "0x5",
      "blockHash": "0xd1c428c9ca9582d20e9a229e86b3fa4425ba76c3300734daae88d6afc8f0e458",
      "blockNumber": "0xa24489",
      "from": "0x40E90B6f11888D2340B95f4a10d166fB15eaE711",
      "to": "0xDd4E20B89ffc2241333F81b8fc08BD525E0B07ed",
      "cumulativeGasUsed": "0x28c0d3",
      "gasUsed": "0x379d0",
      "contractAddress": null,
      "logs": [
        {
          "address": "0xDd4E20B89ffc2241333F81b8fc08BD525E0B07ed",
          "topics": [
            "0x1a980ed1288dfc7afe7c3dc778545d2e2d05ebb59599a644cf2a271e9d2a9b0f"
          ],
          "data": "0x000000000000000000000000000000000000000000000000000000000000000300000000000000000000000040e90b6f11888d2340b95f4a10d166fb15eae71100000000000000000000000000000000000000000000000000000000000000c000000000000000000000000000000000000000000000000000000000000001000000000000000000000000000000000000000000000000000000000000000140000000000000000000000000000000000000000000000000016345785d8a000000000000000000000000000000000000000000000000000000000000000000064974656d203300000000000000000000000000000000000000000000000000000000000000000000000000000000000000000000000000000000000000000016546865206f6e6c7920616e642062657374206974656d00000000000000000000000000000000000000000000000000000000000000000000000000000000001d68747470733a2f2f70696373756d2e70686f746f732f3230302f333030000000",
          "blockHash": "0xd1c428c9ca9582d20e9a229e86b3fa4425ba76c3300734daae88d6afc8f0e458",
          "blockNumber": "0xa24489",
          "transactionHash": "0x64ba8aa8ad86a2c1405276036507400911ca28b1100c264eba4c7918a20a9d94",
          "transactionIndex": "0x5",
          "logIndex": "0x3",
          "removed": false
        }
      ],
      "status": "0x1",
      "logsBloom": "0x00000000000000000000000000000000000000000000000000000000000000000000000000000000000000000000000200000000000000000000000000000000000000000000000000000000000000000000020000000004000000000000000000000000000000000000000000000200000000000000000000000000000000000000000000000000080000000000000000000000000000000000000000000000000000000000000000000000000000100000000000000000000000000000000000000000000000000000000000000000000000000000000000000000000000000000000000000000000000000000000000000000000000000000000000000000",
      "type": "0x2",
      "effectiveGasPrice": "0xb2d05e32"
    },
    {
      "transactionHash": "0x18c97b00632b41e69911533dc08b43b67c981a13b7db50ec8618299b4e52c7f5",
      "transactionIndex": "0x6",
      "blockHash": "0xd1c428c9ca9582d20e9a229e86b3fa4425ba76c3300734daae88d6afc8f0e458",
      "blockNumber": "0xa24489",
      "from": "0x40E90B6f11888D2340B95f4a10d166fB15eaE711",
      "to": "0xDd4E20B89ffc2241333F81b8fc08BD525E0B07ed",
      "cumulativeGasUsed": "0x2c3a97",
      "gasUsed": "0x379c4",
      "contractAddress": null,
      "logs": [
        {
          "address": "0xDd4E20B89ffc2241333F81b8fc08BD525E0B07ed",
          "topics": [
            "0x1a980ed1288dfc7afe7c3dc778545d2e2d05ebb59599a644cf2a271e9d2a9b0f"
          ],
          "data": "0x000000000000000000000000000000000000000000000000000000000000000400000000000000000000000040e90b6f11888d2340b95f4a10d166fb15eae71100000000000000000000000000000000000000000000000000000000000000c000000000000000000000000000000000000000000000000000000000000001000000000000000000000000000000000000000000000000000000000000000140000000000000000000000000000000000000000000000000016345785d8a000000000000000000000000000000000000000000000000000000000000000000064974656d203400000000000000000000000000000000000000000000000000000000000000000000000000000000000000000000000000000000000000000015546865206974656d20666f722065766572796f6e650000000000000000000000000000000000000000000000000000000000000000000000000000000000001d68747470733a2f2f70696373756d2e70686f746f732f3230302f333030000000",
          "blockHash": "0xd1c428c9ca9582d20e9a229e86b3fa4425ba76c3300734daae88d6afc8f0e458",
          "blockNumber": "0xa24489",
          "transactionHash": "0x18c97b00632b41e69911533dc08b43b67c981a13b7db50ec8618299b4e52c7f5",
          "transactionIndex": "0x6",
          "logIndex": "0x4",
          "removed": false
        }
      ],
      "status": "0x1",
      "logsBloom": "0x00000000000000000000000000000000000000000000000000000000000000000000000000000000000000000000000200000000000000000000000000000000000000000000000000000000000000000000020000000004000000000000000000000000000000000000000000000200000000000000000000000000000000000000000000000000080000000000000000000000000000000000000000000000000000000000000000000000000000100000000000000000000000000000000000000000000000000000000000000000000000000000000000000000000000000000000000000000000000000000000000000000000000000000000000000000",
      "type": "0x2",
      "effectiveGasPrice": "0xb2d05e32"
    }
  ],
  "libraries": [],
  "pending": [],
  "returns": {},
  "timestamp": 1696462376,
  "chain": 84531,
  "multi": false,
  "commit": "49ce2f6"
}