{
  "transactions": [
    {
      "hash": "0xee81510b40d3d1c1762a79915c64b2f3e56034e778a9471b0381eb168fa4ce86",
      "transactionType": "CREATE",
      "contractName": "DeShop",
      "contractAddress": "0x0a044Fa9232215Fb9f10A5a6Fa366f6B89804b86",
      "function": null,
      "arguments": null,
      "transaction": {
        "type": "0x02",
        "from": "0x40e90b6f11888d2340b95f4a10d166fb15eae711",
        "gas": "0x1e2c52",
        "value": "0x0",
        "data": "0x608060405234801561001057600080fd5b5060006005819055600655611a7b8061002a6000396000f3fe6080604052600436106100915760003560e01c8063544f2dc911610059578063544f2dc9146101585780636bfb0d0114610185578063834031201461019b578063a1b141d4146101c8578063e7fb74c7146101de57600080fd5b80631b20335d146100965780631d1f35b9146100c95780633129e773146100e95780634ba1d6aa1461011657806353c5d08114610138575b600080fd5b3480156100a257600080fd5b506100b66100b136600461149b565b6101f3565b6040519081526020015b60405180910390f35b3480156100d557600080fd5b506100b66100e43660046114ff565b6102c5565b3480156100f557600080fd5b50610109610104366004611599565b610516565b6040516100c0919061167f565b34801561012257600080fd5b5061012b610735565b6040516100c09190611692565b34801561014457600080fd5b5061012b610153366004611599565b6109ea565b34801561016457600080fd5b506101786101733660046116f4565b610cef565b6040516100c09190611769565b34801561019157600080fd5b506100b660065481565b3480156101a757600080fd5b506101bb6101b6366004611599565b610f39565b6040516100c091906117be565b3480156101d457600080fd5b506100b660055481565b6101f16101ec366004611599565b6110d1565b005b600080600560008154610205906117e7565b9182905550604080516060810182528681526020808201879052600082840181905284815290819052919091208151929350909181906102459082611883565b506020820151600182019061025a9082611883565b5060409182015160029091015533600090815260036020522061027d90826112b4565b508091507fc743f35e27b43c7f3c74a9d0c8c8b236ad11df8cd8b7eda759dd838b4fc2e54b813386866040516102b69493929190611943565b60405180910390a15092915050565b6000856102d233826112c9565b6103385760405162461bcd60e51b815260206004820152602c60248201527f4f6e6c79207468652073746f7265206f776e65722063616e20706572666f726d60448201526b103a3434b99030b1ba34b7b760a11b60648201526084015b60405180910390fd5b86610342816112eb565b61035e5760405162461bcd60e51b815260040161032f9061198a565b600060066000815461036f906117e7565b91905081905590506040518060e0016040528060006001600160a01b03168152602001336001600160a01b03168152602001868152602001600015158152602001898152602001888152602001878152506001600083815260200190815260200160002060008201518160000160006101000a8154816001600160a01b0302191690836001600160a01b0316021790555060208201518160010160006101000a8154816001600160a01b0302191690836001600160a01b031602179055506040820151816002015560608201518160030160006101000a81548160ff021916908315150217905550608082015181600401908161046c9190611883565b5060a082015160058201906104819082611883565b5060c082015160068201906104969082611883565b50505060008981526002602052604090206104b190826112b4565b50600081815260046020526040908190208a90555190935083907f1a980ed1288dfc7afe7c3dc778545d2e2d05ebb59599a644cf2a271e9d2a9b0f9061050290839033908c908c908c908c906119b8565b60405180910390a150505095945050505050565b61051e6113a7565b600082815260016020818152604092839020835160e08101855281546001600160a01b0390811682529382015490931691830191909152600281015492820192909252600382015460ff161515606082015260048201805491929160808401919061058890611800565b80601f01602080910402602001604051908101604052809291908181526020018280546105b490611800565b80156106015780601f106105d657610100808354040283529160200191610601565b820191906000526020600020905b8154815290600101906020018083116105e457829003601f168201915b5050505050815260200160058201805461061a90611800565b80601f016020809104026020016040519081016040528092919081815260200182805461064690611800565b80156106935780601f1061066857610100808354040283529160200191610693565b820191906000526020600020905b81548152906001019060200180831161067657829003601f168201915b505050505081526020016006820180546106ac90611800565b80601f01602080910402602001604051908101604052809291908181526020018280546106d890611800565b80156107255780601f106106fa57610100808354040283529160200191610725565b820191906000526020600020905b81548152906001019060200180831161070857829003601f168201915b5050505050815250509050919050565b606060065467ffffffffffffffff811115610752576107526113f8565b60405190808252806020026020018201604052801561078b57816020015b6107786113a7565b8152602001906001900390816107705790505b50905060005b6006548110156109e657600160006107a98383611a1c565b81526020808201929092526040908101600020815160e08101835281546001600160a01b03908116825260018301541693810193909352600281015491830191909152600381015460ff161515606083015260048101805460808401919061081090611800565b80601f016020809104026020016040519081016040528092919081815260200182805461083c90611800565b80156108895780601f1061085e57610100808354040283529160200191610889565b820191906000526020600020905b81548152906001019060200180831161086c57829003601f168201915b505050505081526020016005820180546108a290611800565b80601f01602080910402602001604051908101604052809291908181526020018280546108ce90611800565b801561091b5780601f106108f05761010080835404028352916020019161091b565b820191906000526020600020905b8154815290600101906020018083116108fe57829003601f168201915b5050505050815260200160068201805461093490611800565b80601f016020809104026020016040519081016040528092919081815260200182805461096090611800565b80156109ad5780601f10610982576101008083540402835291602001916109ad565b820191906000526020600020905b81548152906001019060200180831161099057829003601f168201915b5050505050815250508282815181106109c8576109c8611a2f565b602002602001018190525080806109de906117e7565b915050610791565b5090565b6060816109f6816112eb565b610a125760405162461bcd60e51b815260040161032f9061198a565b6000838152600260205260408120610a2990611300565b90508067ffffffffffffffff811115610a4457610a446113f8565b604051908082528060200260200182016040528015610a7d57816020015b610a6a6113a7565b815260200190600190039081610a625790505b50925060005b81811015610ce6576000858152600260205260408120610aa3908361130a565b600081815260016020818152604092839020835160e08101855281546001600160a01b0390811682529382015490931691830191909152600281015492820192909252600382015460ff16151560608201526004820180549394509092608084019190610b0f90611800565b80601f0160208091040260200160405190810160405280929190818152602001828054610b3b90611800565b8015610b885780601f10610b5d57610100808354040283529160200191610b88565b820191906000526020600020905b815481529060010190602001808311610b6b57829003601f168201915b50505050508152602001600582018054610ba190611800565b80601f0160208091040260200160405190810160405280929190818152602001828054610bcd90611800565b8015610c1a5780601f10610bef57610100808354040283529160200191610c1a565b820191906000526020600020905b815481529060010190602001808311610bfd57829003601f168201915b50505050508152602001600682018054610c3390611800565b80601f0160208091040260200160405190810160405280929190818152602001828054610c5f90611800565b8015610cac5780601f10610c8157610100808354040283529160200191610cac565b820191906000526020600020905b815481529060010190602001808311610c8f57829003601f168201915b505050505081525050858381518110610cc757610cc7611a2f565b6020026020010181905250508080610cde906117e7565b915050610a83565b50505b50919050565b6001600160a01b038116600090815260036020526040812060609190610d1490611300565b90508067ffffffffffffffff811115610d2f57610d2f6113f8565b604051908082528060200260200182016040528015610d8457816020015b610d7160405180606001604052806060815260200160608152602001600081525090565b815260200190600190039081610d4d5790505b50915060005b81811015610f32576001600160a01b0384166000908152600360205260408120610db4908361130a565b9050600080828152602001908152602001600020604051806060016040529081600082018054610de390611800565b80601f0160208091040260200160405190810160405280929190818152602001828054610e0f90611800565b8015610e5c5780601f10610e3157610100808354040283529160200191610e5c565b820191906000526020600020905b815481529060010190602001808311610e3f57829003601f168201915b50505050508152602001600182018054610e7590611800565b80601f0160208091040260200160405190810160405280929190818152602001828054610ea190611800565b8015610eee5780601f10610ec357610100808354040283529160200191610eee565b820191906000526020600020905b815481529060010190602001808311610ed157829003601f168201915b50505050508152602001600282015481525050848381518110610f1357610f13611a2f565b6020026020010181905250508080610f2a906117e7565b915050610d8a565b5050919050565b610f5d60405180606001604052806060815260200160608152602001600081525090565b81610f67816112eb565b610f835760405162461bcd60e51b815260040161032f9061198a565b60008381526020819052604090819020815160608101909252805482908290610fab90611800565b80601f0160208091040260200160405190810160405280929190818152602001828054610fd790611800565b80156110245780601f10610ff957610100808354040283529160200191611024565b820191906000526020600020905b81548152906001019060200180831161100757829003601f168201915b5050505050815260200160018201805461103d90611800565b80601f016020809104026020016040519081016040528092919081815260200182805461106990611800565b80156110b65780601f1061108b576101008083540402835291602001916110b6565b820191906000526020600020905b81548152906001019060200180831161109957829003601f168201915b50505050508152602001600282015481525050915050919050565b6000818152600160205260409020600381015460ff161561112b5760405162461bcd60e51b8152602060048201526014602482015273125d195b481a5cc8185b1c9958591e481cdbdb1960621b604482015260640161032f565b80600201543410156111775760405162461bcd60e51b8152602060048201526015602482015274139bdd08195b9bdd59da08199d5b991cc81cd95b9d605a1b604482015260640161032f565b60018101546001600160a01b031633036111d35760405162461bcd60e51b815260206004820152601860248201527f43616e6e6f742062757920796f7572206f776e206974656d0000000000000000604482015260640161032f565b80546001600160a01b0319163317815560038101805460ff1916600117905560008281526004602090815260408083205460028086015482865293859052918420909101805491939091611228908490611a1c565b909155505060405133903480156108fc02916000818181858888f19350505050158015611259573d6000803e3d6000fd5b5081546002830154604080518681523360208201526001600160a01b039093169083015260608201527f04ddd54c6b746e69ba87f862311f7670bd1d7276846778ac81cd38747b27a7469060800160405180910390a1505050565b60006112c08383611316565b90505b92915050565b6001600160a01b03821660009081526003602052604081206112c09083611365565b600080821180156112c3575050600554101590565b60006112c3825490565b60006112c0838361137d565b600081815260018301602052604081205461135d575081546001818101845560008481526020808220909301849055845484825282860190935260409020919091556112c3565b5060006112c3565b600081815260018301602052604081205415156112c0565b600082600001828154811061139457611394611a2f565b9060005260206000200154905092915050565b6040518060e0016040528060006001600160a01b0316815260200160006001600160a01b03168152602001600081526020016000151581526020016060815260200160608152602001606081525090565b634e487b7160e01b600052604160045260246000fd5b600082601f83011261141f57600080fd5b813567ffffffffffffffff8082111561143a5761143a6113f8565b604051601f8301601f19908116603f01168101908282118183101715611462576114626113f8565b8160405283815286602085880101111561147b57600080fd5b836020870160208301376000602085830101528094505050505092915050565b600080604083850312156114ae57600080fd5b823567ffffffffffffffff808211156114c657600080fd5b6114d28683870161140e565b935060208501359150808211156114e857600080fd5b506114f58582860161140e565b9150509250929050565b600080600080600060a0868803121561151757600080fd5b85359450602086013567ffffffffffffffff8082111561153657600080fd5b61154289838a0161140e565b9550604088013591508082111561155857600080fd5b61156489838a0161140e565b9450606088013591508082111561157a57600080fd5b506115878882890161140e565b95989497509295608001359392505050565b6000602082840312156115ab57600080fd5b5035919050565b6000815180845260005b818110156115d8576020818501810151868301820152016115bc565b506000602082860101526020601f19601f83011685010191505092915050565b600060018060a01b038083511684528060208401511660208501525060408201516040840152606082015115156060840152608082015160e0608085015261164360e08501826115b2565b905060a083015184820360a086015261165c82826115b2565b91505060c083015184820360c086015261167682826115b2565b95945050505050565b6020815260006112c060208301846115f8565b6000602080830181845280855180835260408601915060408160051b870101925083870160005b828110156116e757603f198886030184526116d58583516115f8565b945092850192908501906001016116b9565b5092979650505050505050565b60006020828403121561170657600080fd5b81356001600160a01b038116811461171d57600080fd5b9392505050565b600081516060845261173960608501826115b2565b90506020830151848203602086015261175282826115b2565b915050604083015160408501528091505092915050565b6000602080830181845280855180835260408601915060408160051b870101925083870160005b828110156116e757603f198886030184526117ac858351611724565b94509285019290850190600101611790565b6020815260006112c06020830184611724565b634e487b7160e01b600052601160045260246000fd5b6000600182016117f9576117f96117d1565b5060010190565b600181811c9082168061181457607f821691505b602082108103610ce957634e487b7160e01b600052602260045260246000fd5b601f82111561187e57600081815260208120601f850160051c8101602086101561185b5750805b601f850160051c820191505b8181101561187a57828155600101611867565b5050505b505050565b815167ffffffffffffffff81111561189d5761189d6113f8565b6118b1816118ab8454611800565b84611834565b602080601f8311600181146118e657600084156118ce5750858301515b600019600386901b1c1916600185901b17855561187a565b600085815260208120601f198616915b82811015611915578886015182559484019460019091019084016118f6565b50858210156119335787850151600019600388901b60f8161c191681555b5050505050600190811b01905550565b8481526001600160a01b038416602082015260806040820181905260009061196d908301856115b2565b828103606084015261197f81856115b2565b979650505050505050565b60208082526014908201527314dd1bdc9948191bd95cc81b9bdd08195e1a5cdd60621b604082015260600190565b8681526001600160a01b038616602082015260c0604082018190526000906119e2908301876115b2565b82810360608401526119f481876115b2565b90508281036080840152611a0881866115b2565b9150508260a0830152979650505050505050565b808201808211156112c3576112c36117d1565b634e487b7160e01b600052603260045260246000fdfea2646970667358221220a20314de2e38ca8f167af8f4d3489d5a56a5af29a665e74480b25926c391683c64736f6c63430008140033",
        "nonce": "0x1",
        "accessList": []
      },
      "additionalContracts": [],
      "isFixedGasLimit": false
    },
    {
      "hash": "0x9b8a85b082ec2bd0f300f035e8cece49aba1cca6e84574bfbdefd1502d4ef6c0",
      "transactionType": "CALL",
      "contractName": "DeShop",
      "contractAddress": "0x0a044Fa9232215Fb9f10A5a6Fa366f6B89804b86",
      "function": "createStore(string,string):(uint256)",
      "arguments": [
        "My Store",
        "The most amazing store ever"
      ],
      "transaction": {
        "type": "0x02",
        "from": "0x40e90b6f11888d2340b95f4a10d166fb15eae711",
        "to": "0x0a044fa9232215fb9f10a5a6fa366f6b89804b86",
        "gas": "0x370bd",
        "value": "0x0",
        "data": "0x1b20335d0000000000000000000000000000000000000000000000000000000000000040000000000000000000000000000000000000000000000000000000000000008000000000000000000000000000000000000000000000000000000000000000084d792053746f7265000000000000000000000000000000000000000000000000000000000000000000000000000000000000000000000000000000000000001b546865206d6f737420616d617a696e672073746f726520657665720000000000",
        "nonce": "0x2",
        "accessList": []
      },
      "additionalContracts": [],
      "isFixedGasLimit": false
    },
    {
      "hash": "0x0b1a849d52d5be8d4b1d17ddded52e99c26b5e8229a46583b0ebb3fc507d6bac",
      "transactionType": "CALL",
      "contractName": "DeShop",
      "contractAddress": "0x0a044Fa9232215Fb9f10A5a6Fa366f6B89804b86",
      "function": "createItem(uint256,string,string,string,uint256):(uint256)",
      "arguments": [
        "1",
        "Item 1",
        "The best item ever",
        "https://picsum.photos/200/300",
        "100000000000000000"
      ],
      "transaction": {
        "type": "0x02",
        "from": "0x40e90b6f11888d2340b95f4a10d166fb15eae711",
        "to": "0x0a044fa9232215fb9f10a5a6fa366f6b89804b86",
        "gas": "0x58615",
        "value": "0x0",
        "data": "0x1d1f35b9000000000000000000000000000000000000000000000000000000000000000100000000000000000000000000000000000000000000000000000000000000a000000000000000000000000000000000000000000000000000000000000000e00000000000000000000000000000000000000000000000000000000000000120000000000000000000000000000000000000000000000000016345785d8a000000000000000000000000000000000000000000000000000000000000000000064974656d2031000000000000000000000000000000000000000000000000000000000000000000000000000000000000000000000000000000000000000000125468652062657374206974656d20657665720000000000000000000000000000000000000000000000000000000000000000000000000000000000000000001d68747470733a2f2f70696373756d2e70686f746f732f3230302f333030000000",
        "nonce": "0x3",
        "accessList": []
      },
      "additionalContracts": [],
      "isFixedGasLimit": false
    },
    {
      "hash": "0xdcff6237dfcaff4cee555443f0576a6a99b2a9644c10ab99ce265f4f5315ea18",
      "transactionType": "CALL",
      "contractName": "DeShop",
      "contractAddress": "0x0a044Fa9232215Fb9f10A5a6Fa366f6B89804b86",
      "function": "createItem(uint256,string,string,string,uint256):(uint256)",
      "arguments": [
        "1",
        "Item 2",
        "The best item ever existed",
        "https://picsum.photos/200/300",
        "100000000000000000"
      ],
      "transaction": {
        "type": "0x02",
        "from": "0x40e90b6f11888d2340b95f4a10d166fb15eae711",
        "to": "0x0a044fa9232215fb9f10a5a6fa366f6b89804b86",
        "gas": "0x4ce13",
        "value": "0x0",
        "data": "0x1d1f35b9000000000000000000000000000000000000000000000000000000000000000100000000000000000000000000000000000000000000000000000000000000a000000000000000000000000000000000000000000000000000000000000000e00000000000000000000000000000000000000000000000000000000000000120000000000000000000000000000000000000000000000000016345785d8a000000000000000000000000000000000000000000000000000000000000000000064974656d20320000000000000000000000000000000000000000000000000000000000000000000000000000000000000000000000000000000000000000001a5468652062657374206974656d20657665722065786973746564000000000000000000000000000000000000000000000000000000000000000000000000001d68747470733a2f2f70696373756d2e70686f746f732f3230302f333030000000",
        "nonce": "0x4",
        "accessList": []
      },
      "additionalContracts": [],
      "isFixedGasLimit": false
    },
    {
      "hash": "0x49e8ddf169358c74ec0dc7b2421ffd8c15f1efd646a04022fcb2f5bb2fda252a",
      "transactionType": "CALL",
      "contractName": "DeShop",
      "contractAddress": "0x0a044Fa9232215Fb9f10A5a6Fa366f6B89804b86",
      "function": "createItem(uint256,string,string,string,uint256):(uint256)",
      "arguments": [
        "1",
        "Item 3",
        "The only and best item",
        "https://picsum.photos/200/300",
        "100000000000000000"
      ],
      "transaction": {
        "type": "0x02",
        "from": "0x40e90b6f11888d2340b95f4a10d166fb15eae711",
        "to": "0x0a044fa9232215fb9f10a5a6fa366f6b89804b86",
        "gas": "0x4cdd0",
        "value": "0x0",
        "data": "0x1d1f35b9000000000000000000000000000000000000000000000000000000000000000100000000000000000000000000000000000000000000000000000000000000a000000000000000000000000000000000000000000000000000000000000000e00000000000000000000000000000000000000000000000000000000000000120000000000000000000000000000000000000000000000000016345785d8a000000000000000000000000000000000000000000000000000000000000000000064974656d203300000000000000000000000000000000000000000000000000000000000000000000000000000000000000000000000000000000000000000016546865206f6e6c7920616e642062657374206974656d00000000000000000000000000000000000000000000000000000000000000000000000000000000001d68747470733a2f2f70696373756d2e70686f746f732f3230302f333030000000",
        "nonce": "0x5",
        "accessList": []
      },
      "additionalContracts": [],
      "isFixedGasLimit": false
    },
    {
      "hash": "0x15991d61de87a66ee6003169f7e8544e1a32d16fb49d49b454d0b8ba5aba9ca5",
      "transactionType": "CALL",
      "contractName": "DeShop",
      "contractAddress": "0x0a044Fa9232215Fb9f10A5a6Fa366f6B89804b86",
      "function": "createItem(uint256,string,string,string,uint256):(uint256)",
      "arguments": [
        "1",
        "Item 4",
        "The item for everyone",
        "https://picsum.photos/200/300",
        "100000000000000000"
      ],
      "transaction": {
        "type": "0x02",
        "from": "0x40e90b6f11888d2340b95f4a10d166fb15eae711",
        "to": "0x0a044fa9232215fb9f10a5a6fa366f6b89804b86",
        "gas": "0x51617",
        "value": "0x0",
        "data": "0x1d1f35b9000000000000000000000000000000000000000000000000000000000000000100000000000000000000000000000000000000000000000000000000000000a000000000000000000000000000000000000000000000000000000000000000e00000000000000000000000000000000000000000000000000000000000000120000000000000000000000000000000000000000000000000016345785d8a000000000000000000000000000000000000000000000000000000000000000000064974656d203400000000000000000000000000000000000000000000000000000000000000000000000000000000000000000000000000000000000000000015546865206974656d20666f722065766572796f6e650000000000000000000000000000000000000000000000000000000000000000000000000000000000001d68747470733a2f2f70696373756d2e70686f746f732f3230302f333030000000",
        "nonce": "0x6",
        "accessList": []
      },
      "additionalContracts": [],
      "isFixedGasLimit": false
    }
  ],
  "receipts": [
    {
      "transactionHash": "0xee81510b40d3d1c1762a79915c64b2f3e56034e778a9471b0381eb168fa4ce86",
      "transactionIndex": "0x1",
      "blockHash": "0x2b84c71f0913119d21a9aafe31ee0b742cefc04e796ff612386cea270e214eb8",
      "blockNumber": "0xa0b91e",
      "from": "0x40E90B6f11888D2340B95f4a10d166fB15eaE711",
      "to": null,
      "cumulativeGasUsed": "0x17ecce",
      "gasUsed": "0x1735c9",
      "contractAddress": "0x0a044Fa9232215Fb9f10A5a6Fa366f6B89804b86",
      "logs": [],
      "status": "0x1",
      "logsBloom": "0x00000000000000000000000000000000000000000000000000000000000000000000000000000000000000000000000000000000000000000000000000000000000000000000000000000000000000000000000000000000000000000000000000000000000000000000000000000000000000000000000000000000000000000000000000000000000000000000000000000000000000000000000000000000000000000000000000000000000000000000000000000000000000000000000000000000000000000000000000000000000000000000000000000000000000000000000000000000000000000000000000000000000000000000000000000000",
      "type": "0x2",
      "effectiveGasPrice": "0xb2d05e32"
    },
    {
      "transactionHash": "0x9b8a85b082ec2bd0f300f035e8cece49aba1cca6e84574bfbdefd1502d4ef6c0",
      "transactionIndex": "0x1",
      "blockHash": "0x4f635c231b41ae1588364f2c5221d082803138018ca38491937047b379faf1e2",
      "blockNumber": "0xa0b91f",
      "from": "0x40E90B6f11888D2340B95f4a10d166fB15eaE711",
      "to": "0x0a044Fa9232215Fb9f10A5a6Fa366f6B89804b86",
      "cumulativeGasUsed": "0x334a9",
      "gasUsed": "0x27da4",
      "contractAddress": null,
      "logs": [
        {
          "address": "0x0a044Fa9232215Fb9f10A5a6Fa366f6B89804b86",
          "topics": [
            "0xc743f35e27b43c7f3c74a9d0c8c8b236ad11df8cd8b7eda759dd838b4fc2e54b"
          ],
          "data": "0x000000000000000000000000000000000000000000000000000000000000000100000000000000000000000040e90b6f11888d2340b95f4a10d166fb15eae711000000000000000000000000000000000000000000000000000000000000008000000000000000000000000000000000000000000000000000000000000000c000000000000000000000000000000000000000000000000000000000000000084d792053746f7265000000000000000000000000000000000000000000000000000000000000000000000000000000000000000000000000000000000000001b546865206d6f737420616d617a696e672073746f726520657665720000000000",
          "blockHash": "0x4f635c231b41ae1588364f2c5221d082803138018ca38491937047b379faf1e2",
          "blockNumber": "0xa0b91f",
          "transactionHash": "0x9b8a85b082ec2bd0f300f035e8cece49aba1cca6e84574bfbdefd1502d4ef6c0",
          "transactionIndex": "0x1",
          "logIndex": "0x0",
          "removed": false
        }
      ],
      "status": "0x1",
      "logsBloom": "0x00000000000000000000000000000000000000000000000040000000000000000000000000000000000000040000000000000000000000000000000000000000000000000000000000000000000000000000000000000000000000000000000000000000000000000000000000000000000001000000000000000000000000000000000000000000000000000000000000000000000000000000000000000000000000000000000001000000000000000000000000000000000000000040000000000000000000000000000000000000000000000000000000000000000000000000000000000000000000000000000000000000000000000400000000000000",
      "type": "0x2",
      "effectiveGasPrice": "0xb2d05e32"
    },
    {
      "transactionHash": "0x0b1a849d52d5be8d4b1d17ddded52e99c26b5e8229a46583b0ebb3fc507d6bac",
      "transactionIndex": "0x2",
      "blockHash": "0x4f635c231b41ae1588364f2c5221d082803138018ca38491937047b379faf1e2",
      "blockNumber": "0xa0b91f",
      "from": "0x40E90B6f11888D2340B95f4a10d166fB15eaE711",
      "to": "0x0a044Fa9232215Fb9f10A5a6Fa366f6B89804b86",
      "cumulativeGasUsed": "0x7346f",
      "gasUsed": "0x3ffc6",
      "contractAddress": null,
      "logs": [
        {
          "address": "0x0a044Fa9232215Fb9f10A5a6Fa366f6B89804b86",
          "topics": [
            "0x1a980ed1288dfc7afe7c3dc778545d2e2d05ebb59599a644cf2a271e9d2a9b0f"
          ],
          "data": "0x000000000000000000000000000000000000000000000000000000000000000100000000000000000000000040e90b6f11888d2340b95f4a10d166fb15eae71100000000000000000000000000000000000000000000000000000000000000c000000000000000000000000000000000000000000000000000000000000001000000000000000000000000000000000000000000000000000000000000000140000000000000000000000000000000000000000000000000016345785d8a000000000000000000000000000000000000000000000000000000000000000000064974656d2031000000000000000000000000000000000000000000000000000000000000000000000000000000000000000000000000000000000000000000125468652062657374206974656d20657665720000000000000000000000000000000000000000000000000000000000000000000000000000000000000000001d68747470733a2f2f70696373756d2e70686f746f732f3230302f333030000000",
          "blockHash": "0x4f635c231b41ae1588364f2c5221d082803138018ca38491937047b379faf1e2",
          "blockNumber": "0xa0b91f",
          "transactionHash": "0x0b1a849d52d5be8d4b1d17ddded52e99c26b5e8229a46583b0ebb3fc507d6bac",
          "transactionIndex": "0x2",
          "logIndex": "0x1",
          "removed": false
        }
      ],
      "status": "0x1",
      "logsBloom": "0x00000000000000000000000000000000000000000000000040000000000000000000000000000000000000000000000000000000000000000000000000000000000000000000000000000000000000000000020000000004000000000000000000000000000000000000000000000200000001000000000000000000000000000000000000000000000000000000000000000000000000000000000000000000000000000000000001000000000000000000000000000000000000000000000000000000000000000000000000000000000000000000000000000000000000000000000000000000000000000000000000000000000000000000000000000000",
      "type": "0x2",
      "effectiveGasPrice": "0xb2d05e32"
    },
    {
      "transactionHash": "0xdcff6237dfcaff4cee555443f0576a6a99b2a9644c10ab99ce265f4f5315ea18",
      "transactionIndex": "0x3",
      "blockHash": "0x4f635c231b41ae1588364f2c5221d082803138018ca38491937047b379faf1e2",
      "blockNumber": "0xa0b91f",
      "from": "0x40E90B6f11888D2340B95f4a10d166fB15eaE711",
      "to": "0x0a044Fa9232215Fb9f10A5a6Fa366f6B89804b86",
      "cumulativeGasUsed": "0xaaefd",
      "gasUsed": "0x37a8e",
      "contractAddress": null,
      "logs": [
        {
          "address": "0x0a044Fa9232215Fb9f10A5a6Fa366f6B89804b86",
          "topics": [
            "0x1a980ed1288dfc7afe7c3dc778545d2e2d05ebb59599a644cf2a271e9d2a9b0f"
          ],
          "data": "0x000000000000000000000000000000000000000000000000000000000000000200000000000000000000000040e90b6f11888d2340b95f4a10d166fb15eae71100000000000000000000000000000000000000000000000000000000000000c000000000000000000000000000000000000000000000000000000000000001000000000000000000000000000000000000000000000000000000000000000140000000000000000000000000000000000000000000000000016345785d8a000000000000000000000000000000000000000000000000000000000000000000064974656d20320000000000000000000000000000000000000000000000000000000000000000000000000000000000000000000000000000000000000000001a5468652062657374206974656d20657665722065786973746564000000000000000000000000000000000000000000000000000000000000000000000000001d68747470733a2f2f70696373756d2e70686f746f732f3230302f333030000000",
          "blockHash": "0x4f635c231b41ae1588364f2c5221d082803138018ca38491937047b379faf1e2",
          "blockNumber": "0xa0b91f",
          "transactionHash": "0xdcff6237dfcaff4cee555443f0576a6a99b2a9644c10ab99ce265f4f5315ea18",
          "transactionIndex": "0x3",
          "logIndex": "0x2",
          "removed": false
        }
      ],
      "status": "0x1",
      "logsBloom": "0x00000000000000000000000000000000000000000000000040000000000000000000000000000000000000000000000000000000000000000000000000000000000000000000000000000000000000000000020000000004000000000000000000000000000000000000000000000200000001000000000000000000000000000000000000000000000000000000000000000000000000000000000000000000000000000000000001000000000000000000000000000000000000000000000000000000000000000000000000000000000000000000000000000000000000000000000000000000000000000000000000000000000000000000000000000000",
      "type": "0x2",
      "effectiveGasPrice": "0xb2d05e32"
    },
    {
      "transactionHash": "0x49e8ddf169358c74ec0dc7b2421ffd8c15f1efd646a04022fcb2f5bb2fda252a",
      "transactionIndex": "0x4",
      "blockHash": "0x4f635c231b41ae1588364f2c5221d082803138018ca38491937047b379faf1e2",
      "blockNumber": "0xa0b91f",
      "from": "0x40E90B6f11888D2340B95f4a10d166fB15eaE711",
      "to": "0x0a044Fa9232215Fb9f10A5a6Fa366f6B89804b86",
      "cumulativeGasUsed": "0xe295b",
      "gasUsed": "0x37a5e",
      "contractAddress": null,
      "logs": [
        {
          "address": "0x0a044Fa9232215Fb9f10A5a6Fa366f6B89804b86",
          "topics": [
            "0x1a980ed1288dfc7afe7c3dc778545d2e2d05ebb59599a644cf2a271e9d2a9b0f"
          ],
          "data": "0x000000000000000000000000000000000000000000000000000000000000000300000000000000000000000040e90b6f11888d2340b95f4a10d166fb15eae71100000000000000000000000000000000000000000000000000000000000000c000000000000000000000000000000000000000000000000000000000000001000000000000000000000000000000000000000000000000000000000000000140000000000000000000000000000000000000000000000000016345785d8a000000000000000000000000000000000000000000000000000000000000000000064974656d203300000000000000000000000000000000000000000000000000000000000000000000000000000000000000000000000000000000000000000016546865206f6e6c7920616e642062657374206974656d00000000000000000000000000000000000000000000000000000000000000000000000000000000001d68747470733a2f2f70696373756d2e70686f746f732f3230302f333030000000",
          "blockHash": "0x4f635c231b41ae1588364f2c5221d082803138018ca38491937047b379faf1e2",
          "blockNumber": "0xa0b91f",
          "transactionHash": "0x49e8ddf169358c74ec0dc7b2421ffd8c15f1efd646a04022fcb2f5bb2fda252a",
          "transactionIndex": "0x4",
          "logIndex": "0x3",
          "removed": false
        }
      ],
      "status": "0x1",
      "logsBloom": "0x00000000000000000000000000000000000000000000000040000000000000000000000000000000000000000000000000000000000000000000000000000000000000000000000000000000000000000000020000000004000000000000000000000000000000000000000000000200000001000000000000000000000000000000000000000000000000000000000000000000000000000000000000000000000000000000000001000000000000000000000000000000000000000000000000000000000000000000000000000000000000000000000000000000000000000000000000000000000000000000000000000000000000000000000000000000",
      "type": "0x2",
      "effectiveGasPrice": "0xb2d05e32"
    },
    {
      "transactionHash": "0x15991d61de87a66ee6003169f7e8544e1a32d16fb49d49b454d0b8ba5aba9ca5",
      "transactionIndex": "0x5",
      "blockHash": "0x4f635c231b41ae1588364f2c5221d082803138018ca38491937047b379faf1e2",
      "blockNumber": "0xa0b91f",
      "from": "0x40E90B6f11888D2340B95f4a10d166fB15eaE711",
      "to": "0x0a044Fa9232215Fb9f10A5a6Fa366f6B89804b86",
      "cumulativeGasUsed": "0x11a3ad",
      "gasUsed": "0x37a52",
      "contractAddress": null,
      "logs": [
        {
          "address": "0x0a044Fa9232215Fb9f10A5a6Fa366f6B89804b86",
          "topics": [
            "0x1a980ed1288dfc7afe7c3dc778545d2e2d05ebb59599a644cf2a271e9d2a9b0f"
          ],
          "data": "0x000000000000000000000000000000000000000000000000000000000000000400000000000000000000000040e90b6f11888d2340b95f4a10d166fb15eae71100000000000000000000000000000000000000000000000000000000000000c000000000000000000000000000000000000000000000000000000000000001000000000000000000000000000000000000000000000000000000000000000140000000000000000000000000000000000000000000000000016345785d8a000000000000000000000000000000000000000000000000000000000000000000064974656d203400000000000000000000000000000000000000000000000000000000000000000000000000000000000000000000000000000000000000000015546865206974656d20666f722065766572796f6e650000000000000000000000000000000000000000000000000000000000000000000000000000000000001d68747470733a2f2f70696373756d2e70686f746f732f3230302f333030000000",
          "blockHash": "0x4f635c231b41ae1588364f2c5221d082803138018ca38491937047b379faf1e2",
          "blockNumber": "0xa0b91f",
          "transactionHash": "0x15991d61de87a66ee6003169f7e8544e1a32d16fb49d49b454d0b8ba5aba9ca5",
          "transactionIndex": "0x5",
          "logIndex": "0x4",
          "removed": false
        }
      ],
      "status": "0x1",
      "logsBloom": "0x00000000000000000000000000000000000000000000000040000000000000000000000000000000000000000000000000000000000000000000000000000000000000000000000000000000000000000000020000000004000000000000000000000000000000000000000000000200000001000000000000000000000000000000000000000000000000000000000000000000000000000000000000000000000000000000000001000000000000000000000000000000000000000000000000000000000000000000000000000000000000000000000000000000000000000000000000000000000000000000000000000000000000000000000000000000",
      "type": "0x2",
      "effectiveGasPrice": "0xb2d05e32"
    }
  ],
  "libraries": [],
  "pending": [],
  "returns": {},
  "timestamp": 1696259922,
  "chain": 84531,
  "multi": false,
  "commit": "a03fb2e"
}